{
  "_format": "hh-sol-artifact-1",
  "contractName": "ClaimToken",
  "sourceName": "contracts/ClaimReward.sol",
  "abi": [
    {
      "inputs": [
        {
          "internalType": "address",
          "name": "accepted_token",
          "type": "address"
        }
      ],
      "stateMutability": "nonpayable",
      "type": "constructor"
    },
    {
      "anonymous": false,
      "inputs": [
        {
          "indexed": true,
          "internalType": "address",
          "name": "previousOwner",
          "type": "address"
        },
        {
          "indexed": true,
          "internalType": "address",
          "name": "newOwner",
          "type": "address"
        }
      ],
      "name": "OwnershipTransferred",
      "type": "event"
    },
    {
      "inputs": [
        {
          "internalType": "address",
          "name": "",
          "type": "address"
        },
        {
          "internalType": "uint256",
          "name": "",
          "type": "uint256"
        }
      ],
      "name": "RoyaltiMapping",
      "outputs": [
        {
          "internalType": "uint256",
          "name": "tokenAmount",
          "type": "uint256"
        },
        {
          "internalType": "bool",
          "name": "isClaim",
          "type": "bool"
        }
      ],
      "stateMutability": "view",
      "type": "function"
    },
    {
      "inputs": [
        {
          "internalType": "address",
          "name": "",
          "type": "address"
        }
      ],
      "name": "addressStaked",
      "outputs": [
        {
          "internalType": "bool",
          "name": "",
          "type": "bool"
        }
      ],
      "stateMutability": "view",
      "type": "function"
    },
    {
      "inputs": [
        {
          "internalType": "address",
          "name": "user",
          "type": "address"
        },
        {
          "internalType": "uint256",
          "name": "month",
          "type": "uint256"
        }
      ],
      "name": "claimRoyalti",
      "outputs": [
        {
          "internalType": "bool",
          "name": "",
          "type": "bool"
        }
      ],
      "stateMutability": "nonpayable",
      "type": "function"
    },
    {
      "inputs": [
        {
          "internalType": "address",
          "name": "user",
          "type": "address"
        },
        {
          "internalType": "uint256",
          "name": "month",
          "type": "uint256"
        }
      ],
      "name": "getRoyaltiData",
      "outputs": [
        {
          "internalType": "uint256",
          "name": "",
          "type": "uint256"
        },
        {
          "internalType": "bool",
          "name": "",
          "type": "bool"
        }
      ],
      "stateMutability": "view",
      "type": "function"
    },
    {
      "inputs": [],
      "name": "owner",
      "outputs": [
        {
          "internalType": "address",
          "name": "",
          "type": "address"
        }
      ],
      "stateMutability": "view",
      "type": "function"
    },
    {
      "inputs": [],
      "name": "renounceOwnership",
      "outputs": [],
      "stateMutability": "nonpayable",
      "type": "function"
    },
    {
      "inputs": [
        {
          "internalType": "uint256",
          "name": "month",
          "type": "uint256"
        },
        {
          "internalType": "address[]",
          "name": "participant",
          "type": "address[]"
        },
        {
          "internalType": "uint256[]",
          "name": "amount",
          "type": "uint256[]"
        }
      ],
      "name": "storeRoyaltiData",
      "outputs": [
        {
          "internalType": "bool",
          "name": "",
          "type": "bool"
        }
      ],
      "stateMutability": "nonpayable",
      "type": "function"
    },
    {
      "inputs": [
        {
          "internalType": "address",
          "name": "newOwner",
          "type": "address"
        }
      ],
      "name": "transferOwnership",
      "outputs": [],
      "stateMutability": "nonpayable",
      "type": "function"
    }
  ],
  "bytecode": "0x60806040523480156200001157600080fd5b50604051620012c4380380620012c48339818101604052810190620000379190620001d5565b620000576200004b6200009f60201b60201c565b620000a760201b60201c565b80600160006101000a81548173ffffffffffffffffffffffffffffffffffffffff021916908373ffffffffffffffffffffffffffffffffffffffff1602179055505062000207565b600033905090565b60008060009054906101000a900473ffffffffffffffffffffffffffffffffffffffff169050816000806101000a81548173ffffffffffffffffffffffffffffffffffffffff021916908373ffffffffffffffffffffffffffffffffffffffff1602179055508173ffffffffffffffffffffffffffffffffffffffff168173ffffffffffffffffffffffffffffffffffffffff167f8be0079c531659141344cd1fd0a4f28419497f9722a3daafe3b4186f6b6457e060405160405180910390a35050565b600080fd5b600073ffffffffffffffffffffffffffffffffffffffff82169050919050565b60006200019d8262000170565b9050919050565b620001af8162000190565b8114620001bb57600080fd5b50565b600081519050620001cf81620001a4565b92915050565b600060208284031215620001ee57620001ed6200016b565b5b6000620001fe84828501620001be565b91505092915050565b6110ad80620002176000396000f3fe608060405234801561001057600080fd5b50600436106100885760003560e01c8063e02f3a311161005b578063e02f3a3114610116578063e74d059f14610147578063e89c109d14610177578063f2fde38b146101a757610088565b8063476a7f141461008d578063715018a6146100be5780638da5cb5b146100c8578063c8a9beb6146100e6575b600080fd5b6100a760048036038101906100a29190610a1e565b6101c3565b6040516100b5929190610a88565b60405180910390f35b6100c6610292565b005b6100d06102a6565b6040516100dd9190610ac0565b60405180910390f35b61010060048036038101906100fb9190610a1e565b6102cf565b60405161010d9190610adb565b60405180910390f35b610130600480360381019061012b9190610a1e565b610591565b60405161013e929190610a88565b60405180910390f35b610161600480360381019061015c9190610af6565b6105cf565b60405161016e9190610adb565b60405180910390f35b610191600480360381019061018c9190610cd7565b6105ef565b60405161019e9190610adb565b60405180910390f35b6101c160048036038101906101bc9190610af6565b6107a8565b005b6000806000600260008673ffffffffffffffffffffffffffffffffffffffff1673ffffffffffffffffffffffffffffffffffffffff16815260200190815260200160002060008581526020019081526020016000206000015490506000600260008773ffffffffffffffffffffffffffffffffffffffff1673ffffffffffffffffffffffffffffffffffffffff168152602001908152602001600020600086815260200190815260200160002060010160009054906101000a900460ff16905081819350935050509250929050565b61029a61082c565b6102a460006108aa565b565b60008060009054906101000a900473ffffffffffffffffffffffffffffffffffffffff16905090565b600060011515600360006102e161096e565b73ffffffffffffffffffffffffffffffffffffffff1673ffffffffffffffffffffffffffffffffffffffff16815260200190815260200160002060009054906101000a900460ff1615151461036b576040517f08c379a000000000000000000000000000000000000000000000000000000000815260040161036290610dc4565b60405180910390fd5b60001515600260008573ffffffffffffffffffffffffffffffffffffffff1673ffffffffffffffffffffffffffffffffffffffff168152602001908152602001600020600084815260200190815260200160002060010160009054906101000a900460ff16151514610412576040517f08c379a000000000000000000000000000000000000000000000000000000000815260040161040990610e30565b60405180910390fd5b6000600260008573ffffffffffffffffffffffffffffffffffffffff1673ffffffffffffffffffffffffffffffffffffffff1681526020019081526020016000206000848152602001908152602001600020600001549050600160009054906101000a900473ffffffffffffffffffffffffffffffffffffffff1673ffffffffffffffffffffffffffffffffffffffff1663a9059cbb85836040518363ffffffff1660e01b81526004016104c7929190610e50565b602060405180830381600087803b1580156104e157600080fd5b505af11580156104f5573d6000803e3d6000fd5b505050506040513d601f19601f820116820180604052508101906105199190610ea5565b506001600260008673ffffffffffffffffffffffffffffffffffffffff1673ffffffffffffffffffffffffffffffffffffffff168152602001908152602001600020600085815260200190815260200160002060010160006101000a81548160ff021916908315150217905550600191505092915050565b6002602052816000526040600020602052806000526040600020600091509150508060000154908060010160009054906101000a900460ff16905082565b60036020528060005260406000206000915054906101000a900460ff1681565b60006105f961082c565b60005b845181101561079b5783838281811061061857610617610ed2565b5b905060200201356002600087848151811061063657610635610ed2565b5b602002602001015173ffffffffffffffffffffffffffffffffffffffff1673ffffffffffffffffffffffffffffffffffffffff1681526020019081526020016000206000888152602001908152602001600020600001819055506000600260008784815181106106a9576106a8610ed2565b5b602002602001015173ffffffffffffffffffffffffffffffffffffffff1673ffffffffffffffffffffffffffffffffffffffff168152602001908152602001600020600088815260200190815260200160002060010160006101000a81548160ff02191690831515021790555060016003600087848151811061072f5761072e610ed2565b5b602002602001015173ffffffffffffffffffffffffffffffffffffffff1673ffffffffffffffffffffffffffffffffffffffff16815260200190815260200160002060006101000a81548160ff021916908315150217905550808061079390610f30565b9150506105fc565b5060019050949350505050565b6107b061082c565b600073ffffffffffffffffffffffffffffffffffffffff168173ffffffffffffffffffffffffffffffffffffffff161415610820576040517f08c379a000000000000000000000000000000000000000000000000000000000815260040161081790610feb565b60405180910390fd5b610829816108aa565b50565b61083461096e565b73ffffffffffffffffffffffffffffffffffffffff166108526102a6565b73ffffffffffffffffffffffffffffffffffffffff16146108a8576040517f08c379a000000000000000000000000000000000000000000000000000000000815260040161089f90611057565b60405180910390fd5b565b60008060009054906101000a900473ffffffffffffffffffffffffffffffffffffffff169050816000806101000a81548173ffffffffffffffffffffffffffffffffffffffff021916908373ffffffffffffffffffffffffffffffffffffffff1602179055508173ffffffffffffffffffffffffffffffffffffffff168173ffffffffffffffffffffffffffffffffffffffff167f8be0079c531659141344cd1fd0a4f28419497f9722a3daafe3b4186f6b6457e060405160405180910390a35050565b600033905090565b6000604051905090565b600080fd5b600080fd5b600073ffffffffffffffffffffffffffffffffffffffff82169050919050565b60006109b58261098a565b9050919050565b6109c5816109aa565b81146109d057600080fd5b50565b6000813590506109e2816109bc565b92915050565b6000819050919050565b6109fb816109e8565b8114610a0657600080fd5b50565b600081359050610a18816109f2565b92915050565b60008060408385031215610a3557610a34610980565b5b6000610a43858286016109d3565b9250506020610a5485828601610a09565b9150509250929050565b610a67816109e8565b82525050565b60008115159050919050565b610a8281610a6d565b82525050565b6000604082019050610a9d6000830185610a5e565b610aaa6020830184610a79565b9392505050565b610aba816109aa565b82525050565b6000602082019050610ad56000830184610ab1565b92915050565b6000602082019050610af06000830184610a79565b92915050565b600060208284031215610b0c57610b0b610980565b5b6000610b1a848285016109d3565b91505092915050565b600080fd5b6000601f19601f8301169050919050565b7f4e487b7100000000000000000000000000000000000000000000000000000000600052604160045260246000fd5b610b7182610b28565b810181811067ffffffffffffffff82111715610b9057610b8f610b39565b5b80604052505050565b6000610ba3610976565b9050610baf8282610b68565b919050565b600067ffffffffffffffff821115610bcf57610bce610b39565b5b602082029050602081019050919050565b600080fd5b6000610bf8610bf384610bb4565b610b99565b90508083825260208201905060208402830185811115610c1b57610c1a610be0565b5b835b81811015610c445780610c3088826109d3565b845260208401935050602081019050610c1d565b5050509392505050565b600082601f830112610c6357610c62610b23565b5b8135610c73848260208601610be5565b91505092915050565b600080fd5b60008083601f840112610c9757610c96610b23565b5b8235905067ffffffffffffffff811115610cb457610cb3610c7c565b5b602083019150836020820283011115610cd057610ccf610be0565b5b9250929050565b60008060008060608587031215610cf157610cf0610980565b5b6000610cff87828801610a09565b945050602085013567ffffffffffffffff811115610d2057610d1f610985565b5b610d2c87828801610c4e565b935050604085013567ffffffffffffffff811115610d4d57610d4c610985565b5b610d5987828801610c81565b925092505092959194509250565b600082825260208201905092915050565b7f596f7520617265206e6f74207061727469636970617465640000000000000000600082015250565b6000610dae601883610d67565b9150610db982610d78565b602082019050919050565b60006020820190508181036000830152610ddd81610da1565b9050919050565b7f616c726561647920636c61696d00000000000000000000000000000000000000600082015250565b6000610e1a600d83610d67565b9150610e2582610de4565b602082019050919050565b60006020820190508181036000830152610e4981610e0d565b9050919050565b6000604082019050610e656000830185610ab1565b610e726020830184610a5e565b9392505050565b610e8281610a6d565b8114610e8d57600080fd5b50565b600081519050610e9f81610e79565b92915050565b600060208284031215610ebb57610eba610980565b5b6000610ec984828501610e90565b91505092915050565b7f4e487b7100000000000000000000000000000000000000000000000000000000600052603260045260246000fd5b7f4e487b7100000000000000000000000000000000000000000000000000000000600052601160045260246000fd5b6000610f3b826109e8565b91507fffffffffffffffffffffffffffffffffffffffffffffffffffffffffffffffff821415610f6e57610f6d610f01565b5b600182019050919050565b7f4f776e61626c653a206e6577206f776e657220697320746865207a65726f206160008201527f6464726573730000000000000000000000000000000000000000000000000000602082015250565b6000610fd5602683610d67565b9150610fe082610f79565b604082019050919050565b6000602082019050818103600083015261100481610fc8565b9050919050565b7f4f776e61626c653a2063616c6c6572206973206e6f7420746865206f776e6572600082015250565b6000611041602083610d67565b915061104c8261100b565b602082019050919050565b6000602082019050818103600083015261107081611034565b905091905056fea2646970667358221220b4d97ca7dcf987e4c3ccee7ff0bea4a7166e6087627c512111b1e4cd4ea2733f64736f6c63430008090033",
  "linkReferences": {},
  "deployedLinkReferences": {}
}